:020000040000FA
:10000000F03B0020650100006D0100006F01000061
:1000100000000000000000000000000000000000E0
:10002000000000000000000000000000710100005E
:1000300000000000000000007301000075010000D6
:1000400077010000770100001169000077010000CE
:1000500077010000770100007701000077010000C0
:1000600077010000770100007701000077010000B0
:1000700077010000770100007701000077010000A0
:10008000355E000077010000770100007701000075
:10009000B15C0000770100007701000077010000EB
:1000A0007701000077010000770100007701000070
:1000B0007701000077010000F94F00007701000090
:1000C00000F002F800F03EF80CA030C80838241800
:1000D0002D18671EA246AB4654465D46AC4201D180
:1000E00000F030F87E460F3EB6460FCC0126334274
:1000F00000D0FB1A3343A246AB46184714970000C2
:1001000034970000103A02D378C878C1FAD8520761
:1001100001D330C830C101D504680C6070470000BD
:100120000023002400250026103A01D378C1FBD813
:10013000520700D330C100D50B6070471FB51FBDFB
:1001400010B510BD01F074F91146FFF7F7FF08F084
:1001500001FA01F08CF903B4FFF7F2FF03BC01F0E0
:10016000E7F900000748804707480047FEE7FEE739
:10017000FEE7FEE7FEE7FEE704480549054A064BB1
:10018000704700004D6E0000C1000000F02B002001
:10019000F03B0020F0330020F033002030B505465E
:1001A0000B462A461C781078521C5B1C002801D094
:1001B000A042F7D0002C03D0002802D06D1CEFE73E
:1001C000284630BD034610B50B439B070FD1042AC8
:1001D0000DD308C810C9121FA342F8D018BA21BA0B
:1001E000884201D9012010BD0020C04310BD002A63
:1001F00003D0D30703D0521C07E0002010BD0378C2
:100200000C78401C491C1B1B07D103780C78401C40
:10021000491C1B1B01D1921EF1D1184610BD0000D4
:10022000034670B502460B439B070FD10E4CE60107
:1002300000E008C208C91D1B9D433542F9D0D9B260
:100240001170521C00290DD01B0AF8E70B78491CCD
:100250001370521C002B05D00B78491C1370521CD4
:10026000002BF3D170BD00000101010101E004C0C9
:10027000091F0429FBD28B0701D50280801CC90706
:1002800000D00270704700290BD0C30702D0027063
:10029000401C491E022904D3830702D50280801C1A
:1002A000891EE3E70022EEE70022DFE7F8B5074604
:1002B0000B4639461943890713D1164CE601042A27
:1002C0000FD302CB0D1B8D43354202D102C0121F4A
:1002D000F5E7CBB20370401C521E002B13D0090A65
:1002E000F7E7002A14D01978521E5B1C0170401CDD
:1002F000002908D0002A0BD01978521E5B1C01700F
:10030000401C0029EDD1002A02D01146FFF7CAFF98
:100310003846F8BD01010101002203098B422CD3AC
:10032000030A8B4211D300239C464EE003460B4345
:100330003CD4002243088B4231D303098B421CD3A7
:10034000030A8B4201D394463FE0C3098B4201D399
:10035000CB01C01A524183098B4201D38B01C01AD1
:10036000524143098B4201D34B01C01A5241030948
:100370008B4201D30B01C01A5241C3088B4201D3F7
:10038000CB00C01A524183088B4201D38B00C01AA4
:10039000524143088B4201D34B00C01A5241411ACB
:1003A00000D201465241104670475DE0CA0F00D0AE
:1003B0004942031000D3404253409C4600220309A7
:1003C0008B422DD3030A8B4212D38901FC2212BA2D
:1003D000030A8B420CD3890192118B4208D3890105
:1003E00092118B4204D389013AD0921100E089091D
:1003F000C3098B4201D3CB01C01A524183098B42FE
:1004000001D38B01C01A524143098B4201D34B01E6
:10041000C01A524103098B4201D30B01C01A524149
:10042000C3088B4201D3CB00C01A524183088B42D0
:1004300001D38B00C01A5241D9D243088B4201D359
:100440004B00C01A5241411A00D201465241104697
:1004500063465B1001D34042002B00D549427047F0
:1004600063465B1000D3404201B50549002802DC19
:10047000491C084000E00846C046C04602BD00BF17
:10048000FFFFFF7F70477047704700000246C80FAC
:10049000C00781434B0030B54B405B009B0D20D023
:1004A0001923DB06C91801231B05994220DB03240D
:1004B000A40704251346AB400BD3002B04D1EB0655
:1004C00013409B00E34204D4012464070023121963
:1004D0005941FF231B0599420BD2C9000143500F1C
:1004E00009E0CB0204D501430803024305D00548C7
:1004F00030BDFF21C905084330BD08460721090565
:10050000884330BD0000C07FF0B50C46871A9C417F
:100510000D46861A9D4103D2C01BA141D2196341E9
:100520000D0D1F0DC94EEC1BAE435CD07F057F0D3A
:100530000026002F51D02D05AC46A943DD02012332
:10054000ED0A1B051D4320231B1B24D41746E7403F
:10055000381871412F46E740CC199D402818314684
:1005600061410C0D27D161449A4013D50023401CF2
:10057000594152000ED14008400001224B00520563
:10058000D34207D305204007C14201D5B04900E05E
:10059000B0493046F0BD6B00002A00D001229A1805
:1005A0001F23203C1B1B01D5002302E0E540281837
:1005B00071410C0DD7D0012424050919C407CD07BA
:1005C00040084908E40F28436144002CD5D000249A
:1005D000401C61419A40D0D1CDE76A05520DD9D176
:1005E000C90FC907D5E79C4D4E00002801D0012452
:1005F00000E0002434195F00002A01D0012600E049
:100600000026BE19954FAC420CD8AE420AD8B4426F
:1006100006D001256D05EC42BCD010461946F0BD50
:100620009942FCD000203946F0BDF0B51FB40C460D
:100630000F46811A9F412546861A9D4106D2012503
:10064000ED076F40401ABC4152187B41210D1E0D31
:100650008D1BAC467D4D8D437ED075056D0D7CD0D8
:100660000D05AE46AC431B031B0B794D52429D4119
:10067000202366469B1B14D31746F74038180026E4
:100680000090744160462F460741E41900989D4050
:100690002818664116D4714671189A4025D5012351
:1006A00020E093182A466A415200002B00D0521CC9
:1006B0001E23203E9B1B002B61DD3541EE172818C1
:1006C0006641E8D5001876415B1C9A4000D3401C77
:1006D0004B05F3181524E34010D3002B52D071467C
:1006E0007118D30FC01802D3491C05B0F0BD012307
:1006F000DB079A42F9D140084000F6E70122520593
:10070000B21801D1002853D00123CC0ADB0299434F
:10071000891E002A08D1020C03D0020C00041039F3
:1007200002E00246002020390023550B05D11202B9
:100730000823550B01D152010D23550C01D1120193
:100740001B1DD50C01D192009B1C150D01D152002F
:100750005B1C2025EE1A01E02CE022E00546F54066
:1007600015439840CA1AE10769181305C918002AE9
:10077000BBDA032040070818C10FC9070FE0714614
:100780006118B2E7F10740080843711071444A004C
:100790000CD001235B059A42A7D2C90FC9070020DC
:1007A000A3E74905490D26D1002001E00028F4D136
:1007B00000219AE7284D6600002801D0012100E0C1
:1007C000002171185F00002A01D0012600E00026F8
:1007D000BE19224FA94210D8AE420ED8B14208D05D
:1007E00001256D05E94206D01946A8024140104690
:1007F0007BE79C4201D0214677E70020394674E729
:1008000010B50C465C4005D50124E4076340FFF7B2
:100810000CFF10BDFFF778FE10BD30B40C465C40F5
:1008200004D50124E407634030BC6DE630BCFCE62F
:1008300070B50124E40761400D465D4002D4FFF726
:1008400063FE70BD6340FFF7F0FE70BDFF07000060
:100850000000F0FF0000F07F0000E0FF0000F87FE4
:10086000F0B5F94D0C091E092C402E402F468BB0D7
:10087000A7437DD0B543FCD0002E7AD0002CFCD00D
:100880000D465D40ED0F2543AC1BFF25AD046419FB
:100890000894C502440DC9022143500DDC020443F3
:1008A0000120C00701430443D2020191200C110C26
:1008B00000958C46010423468B430A916146090446
:1008C000E24D8A430991010A7D444919803909782A
:1008D00005464D4301266D18F605751B6943C90C85
:1008E000640B891C4C436418B5012C1B250C2E0489
:1008F000B4434C434D43210C691889090591009D6F
:10090000E90701D00121C90704912C460199670824
:10091000CD072F434C08059DE10B4D432D0C294677
:100920006646754302950D4645432E46029D7D1B46
:10093000B44100950D465D4301942C0C2F040D46E7
:100940005543AE462D0C3D43029503947546049CD9
:100950002D04641B049406D2029C039D641C002693
:1009600075410395029401AC70CC009F7D1B01E0A2
:100970003EE162E1B44109040095079101940599B3
:10098000A4086143090C0C464443650BE7040C467C
:1009900066467443A646640B3C4303950294744632
:1009A000049DE4042C1B049406D2029C039D641C49
:1009B000002675410395029401AC70CC009F7D1B0D
:1009C000B44101940C465C430095650FE7000C466A
:1009D0005443A646640F3C43039502947446049D19
:1009E000E4002C1B049406D2029C039D641C002688
:1009F00075410395029401AC70CC009F7D1BB441FE
:100A0000AE09AF06049DC900AD092F43049DA4069D
:100A1000AD060495079D344369180791059DE10BC8
:100A20004D432D0C29466646754302950D464543B8
:100A30002E46029D7D1BB44100950D465D430194F9
:100A40002C0C2F040D465543AE462D0C3D4302950C
:100A500003947546049C2D04641B049406D2029CE6
:100A6000039D641C002675410395029401AC70CC73
:100A7000009F7D1BB44101948C050694079C890A54
:100A8000611800950791019C0599A4086143090C20
:100A90000D464543680BEF040D46644665436C0BF9
:100AA0003C43049FED047D1BAC4602D20025641C30
:100AB0006841009E019D371B8541084658430195BA
:100AC0000C46460FC5005443600F28436546E400BA
:100AD0002C1B02D20025401C6E41019D3F1AB541DE
:100AE0002846BD09800628438446A009BF064E0259
:100AF0000699A40676180743079D002068410A99C5
:100B0000079019430020099B00906046FF1913438A
:100B10004041E20F64003A43A4460446D71A8C4190
:100B2000A04203D90120009020463A46C70F9418EE
:100B300040416246D20F2243644664000494009C04
:100B4000BE466400D71AA446044602978C417746F5
:100B5000002F01D1A04204D96046401C8446029A6D
:100B60002046C40FA64694184041049A0546D20F69
:100B7000224364466400D31A8D417146002901D195
:100B8000A84202D928461A46641C104301220028B4
:100B900000D0164361020020079B891904465C417E
:100BA0000223002C02DB491813466441089DCE0A3B
:100BB0002D145D194B056705E10A2C050D190899DF
:100BC0003E43C9076940002B08D0934006D300225A
:100BD000761C5141002B01D1760876001C4A002D6D
:100BE00043DB154241D0AA433FD030460BB0F0BDA5
:100BF00006180D464D41174C7642AC411AD3951854
:100C00001C465C41134A6D42A24113D30122520596
:100C10004C00D4420AD15C00D4420BD04B4002D5E8
:100C200092021143E2E749004908DFE75940C90F42
:100C3000C90718E000200849D8E7054801420DD14E
:100C40000342F7D0F2E700000000FF07948D000098
:100C50000000F07F0000E0FF0000F87F11485940DD
:100C60000143C01241400020C0E70123089A9B06BF
:100C70009A4205DC032252078918C90FC907B5E754
:100C8000052252078918074A1143D2125140ADE795
:100C900070B515461C4602460B4628462146FFF70E
:100CA000DFFD70BDFFFFFF7F1F22030C02D10F226B
:100CB000000402D0030E03D004E000200146704778
:100CC0000002083A030F01D10001121F830F01D166
:100CD0008000921E002801DB4000521E12055118B0
:100CE0004205C012411810467047C10FC90700D015
:100CF0004042012292071143D6E701218907D3E739
:100D0000F0B58B4C0F09254689B0BD437BD01D093A
:100D10002646AE43FAD00E465E402740F60F3E43CD
:100D2000254071D024012142FBD0FF24AD19A40439
:100D30002D1B039501252D05DB02DB0AC9022B4380
:100D4000C90A29431E010901040F130F050121439C
:100D50001701880B820391432D098C46A90B1E4372
:100D60008A039543B30B9A0396433F09BA0B940346
:100D7000A74302962E467E430497B6464E19D719CE
:100D80000C460196544305977E43371B7646BF1B9E
:100D90003601B646BE0B361900967646BC043719A6
:100DA000009C01D3641C00946400002F01D0012634
:100DB0003443029E049F754366467E430496760044
:100DC00034196E0034190094029C019E1C1966436C
:100DD000751BAE46069465464519059C05956C4302
:100DE000594375460891691A0191049E0146514381
:100DF000A41B0491611A009C0791E10605D06109CA
:100E00000122114302E072E06EE06109089D0027B3
:100E10002C0A2D066918049D7C412A0A2D066918A2
:100E2000019D6241AC0DAD026D185441079A910DC0
:100E3000920255196141029A644658435443069BF5
:100E4000059A5A43121A131B9A0E9B015B187A419A
:100E5000010B0005C3185141220A200644195A41CA
:100E60009A4200D2491C01204002814203D315233B
:100E70000226F64302E014230326F6432020C51A77
:100E8000A9401746AF40DA400A4320460399D840AC
:100E90000914731819055118039A3843D2075140A1
:100EA000AC4009D00122944006D30022401C51419D
:100EB000002C01D1400840001E4A934212D3012267
:100EC00003989206904207DB0520400709181A484C
:100ED0000143C012414004E0032040070818C10F3D
:100EE000C907002009B0F0BD0020F107FAE7051896
:100EF0000C464C4111486D42A04115D394181A4636
:100F00005A410E48644290410ED301204A004005E8
:100F1000824209D35A00824206D35940C90F084A77
:100F2000C90700201143DDE700200649DAE7000089
:100F30000000FF07FE070000FFFFFF7F0000E0FF4B
:100F40000000F07F0000F87F0121C905012341184E
:100F500042001B06D3185B0E0AD0C1100722D2062E
:100F6000891840075242D14201D552008918704772
:100F7000090208D50146002A03D0C10FC907002085
:100F8000704710467047420202D000200249704765
:100F9000072109050143F4E70000F87FF0B5FF25BC
:100FA0002D04C609C209FF2704462E400137CB098C
:100FB0003E4348402A402B400746002A6BD0002B76
:100FC00069D0AA4267D0AB4265D0002800DA324629
:100FD0000125ED0529432C4309022002090AD21AF2
:100FE0004B0C7F24E31A434C000A7C44E35C7D24D1
:100FF0002404121914145B00A218884201D3521C55
:1010000000E0400049420C465C4324115C43DB0194
:101010006415E318040A5C43C502200D0C464443E2
:101020006419250A5D432303EC0C0D466543000358
:101030000019EB184C42A34201D35B18401CD405A5
:101040002018002B07D05B00C91804D3401C0029CE
:1010500001D1400840003F2189048A4209D3002A77
:1010600008DC1106090F04D0032149074018C00FFE
:10107000C007F0BD01224100120689187F225206E6
:101080009142F6D205214907C84201D59010F0BD22
:10109000FF20C005F0BD002F00DA32461648AA42F4
:1010A00007D2AB4205D21902090E17D0F80FC007BC
:1010B000F0BDFF2563002D06AB42F9D84900A942D7
:1010C000F6D8AB4201D1A942F2D0A94201D1002108
:1010D00001E061004908D0050843F0BD1102090E86
:1010E000FBD0FF200243D005F0BD0A460146104662
:1010F00054E70000F28600000000C07F10B50146F2
:101100009E240002CA15A307002A02D01843002A11
:1011100004DBA21A002A0CDDD04010BD1206120E0C
:1011200001D140004008A21A03D4D0404042002818
:10113000F3DDFF2248001206904201D9002010BDC5
:10114000C817C043584010BD1F22030C02D10F2204
:1011500000041CD0030E01D10002083A030F01D194
:101160000001121F830F01D18000921E002801DBB5
:101170004000521ED20551180212511819229040F7
:1011800004D3491C002801D149084900084670478A
:10119000C10FC90700D04042012292071143D3E793
:1011A00001218907D0E710B500F0B8F8006810BD3C
:1011B00010B5044600F0B2F8046010BD70B50546E5
:1011C0004800440D124B0020002C0AD0634008D088
:1011D0009A4206DA6642B24203DD120540195141D5
:1011E00070BD002C08D0002B09D0C90FC907002AF8
:1011F000F6DB084A114370BDC90FC90770BD284608
:101200000A03104302D00020034970BD284670BD78
:10121000FF0700000000F07F0000F87FF0B53D4BB5
:1012200002460C461C400020002C63D03A4D8B43F4
:1012300066D000296BDB0B0D1D05A94301252D058B
:1012400029430124FD33E34001D392184941FF3380
:1012500081339C468B02940D0121234389074C4224
:10126000920200271B198C105D1A04D42D1B02D486
:101270002B466500491992185B416408F4D15C1A49
:1012800008D40125ED07EE175519744102D42A46FA
:101290002346491C94185B41012292071D46E61B18
:1012A0008D4106D4B61A854103D42B4655003446E9
:1012B0007F1924195B415208802AEFD1234300D0C3
:1012C000022338460A22D04001D3012213438A0563
:1012D00010436246890A12058918002B09D00122A1
:1012E000D34002D30022401C5141002B01D14008C1
:1012F0004000F0BD0B03134307D0C90FC907F0BD71
:101300000803104303D1002901DB1046F0BD002083
:101310002946F0BD0000F07F0000F87F00487047CC
:1013200010000020F8B5264C4E00069DA6420AD8B3
:10133000A64201D1002806D15E00A64203D8A642EB
:101340000AD1002A08D00D242404254233D029468E
:10135000002000F094F8F8BD0C461C4311D49942CB
:1013600007D0C81A02D3EFF30080F8BDEFF3008076
:10137000F8BD801A02D3EFF30080F8BDEFF30080D0
:10138000F8BD09242407E5008B4207D0581A02D380
:10139000EFF3008006E0EFF3008007E0101A03D3BC
:1013A000EFF30080A04303E0EFF30080A043284365
:1013B00080F30088F8BD009500F078F8F8BD0000D3
:1013C0000000E0FF10B5FF231B0644009C421DD81F
:1013D0004C009C421AD80346124A0B4307D4401AC9
:1013E00002D3EFF3008010BDEFF3008010BD081AA8
:1013F00003D3EFF30080904305E0EFF30080012179
:101400009043C907084380F3008810BD0D231B04D7
:101410001A4204D01146002000F031F810BD00F04F
:101420004FF810BD000000900048704710000020E9
:101430007546FFF7F9FFAE46050069465346C008FA
:10144000C000854618B020B5FEF796FE60BCB646D3
:1014500000260027C0C5C0C5C0C5C0C5C0C5C0C521
:10146000C0C5C0C5403D490849008D46704710B50C
:101470000446C046C0462046FEF76DFE10BDC802B9
:1014800012D54803400F002804D0C803C0430121EF
:1014900088407047EFF3008000010009032109072D
:1014A000084380F3008870470020704710B5002083
:1014B0000249029A00F00CF810BD00000000F87F0D
:1014C00010B5024800F004F810BD00000000C07F15
:1014D00010B50C461107090F092904D00A290AD0B2
:1014E00008290CD104E011460820FFF7C8FF06E0E8
:1014F000510606D501E0510601D50120C00721465D
:1015000010BDD10607D501010909CC084907000E15
:101510000006044309E0410F20024907000A014385
:10152000200E00061D22D14101430846E7E70000D6
:1015300001491820ABBEFEE726000200704780B5C7
:1015400082B00190019804F0CBFA019803F060FE9C
:1015500002B080BD86B0059004A8018001A9214891
:10156000088003A900200880FFE703A8008804A9D9
:101570000988884231DAFFE70598017801984840E8
:1015800001A9088002A900200880FFE702A80088BE
:10159000072819DCFFE701AA1188012001406846ED
:1015A00001801188490811800088002806D0FFE7D3
:1015B00001980D49484001A90880FFE7FFE702981C
:1015C000401C02A90880E1E70598401C0590FFE750
:1015D0000398401C03A90880C7E701A8008806B04B
:1015E0007047C046FFFF000001A0000080B582B038
:1015F0001148019001210091490303F089FB0198F2
:10160000082103F085FB0099019803F081FB019804
:10161000022103F07DFB00990198090303F078FB98
:10162000C34801F069FE474802F0D6FE032005F0EA
:1016300031F802B080BDC0465601002080B58AB0A6
:10164000099006A90291C120887030480880099845
:10165000C279017A0902891807AA01929180C27899
:101660000179090289184279807900028018000402
:10167000401807900320039005F00CF80A2000F0B2
:10168000F3FF0198062105F00BFD7D20C0000490BA
:1016900000F0EAFF0298039905F002FD049800F0BB
:1016A000F4FFFFE700F0D0FF002808D1FFE718485B
:1016B0000088082103F037FB002801D0FFE700E095
:1016C000F0E713480088082103F02DFB00281AD00A
:1016D000FFE70F48082103F01BFB0E4907A806226D
:1016E000FEF770FD014605A80170007840B20028A1
:1016F00008D1FFE72E48012101F071FD064800F0F6
:10170000B3FFFFE7FFE70AB080BDC046C1C10000DC
:1017100052010020801200208813000080B580480C
:1017200002F056F8804802F053F87E4802F03CFF81
:101730007E4802F039FF2E4800F012FA014802F00C
:1017400017FE80BD0010014080B505F0EBFEFFF7ED
:101750004DFFFFF7E3FF80BD80B584B000F0A0F837
:1017600003A900200870FFE703A80078012817DC10
:10177000FFE702A8019006F075F8019800786A2842
:1017800005D1FFE70A48012101F0A2FBFFE7322063
:1017900000F06AFFFFE70398401C03A90870E3E725
:1017A00005F0D6FE05F040F804F079FA04B080BDEB
:1017B000800C004080B582B05948019002F0A5F835
:1017C000019802F099F8019802F002F8554802F0E9
:1017D0005FFF564802F05CFFE04800F0F1F9544822
:1017E00001F08AFD032004F055FF02B080BDC04621
:1017F000005C0140094924480860244848602448A6
:1018000088600020C86008618861C8610862486219
:101810002049034A8850034A8850704784000020BA
:1018200030180000241800000949174808601748BC
:101830004860174888600020C86008618861C861F6
:10184000086248621349034A8850034A8850704727
:10185000C8000020341800002818000009490A4870
:1018600008600A4848600A4888600020C86008612B
:101870008861C861086248620649074A8850074A79
:10188000885070470C0100206F12833AA69B443B9E
:101890008FC2F53C8C130020381800002C18000073
:1018A00080B584B01E48009002F070F8009802F0F5
:1018B00052F8009801F03CFF009801F059FF0098A1
:1018C00001F06EFF174802F0FEFE1748019002F08B
:1018D0005DF8019802F03FF8019801F029FF0198A6
:1018E00001F046FF019801F05BFF104802F0EBFEAB
:1018F0000F4801F00AFD0320039004F0CBFE6420A2
:10190000029000F0B1FE0B48401C04F0B3F80298BE
:1019100000F0AAFE039804F0BDFE04B080BDC046EE
:1019200000400140000401400050014000480140D7
:10193000003401407200002081B000900099102016
:10194000086001B0704781B00090009901200860E4
:1019500001B0704780B58AB0099008A901200870CD
:10196000FFE7099801680120002907901CD0FFE7D4
:101970000998016801200129079015D0FFE709980F
:1019800001680120022907900ED0FFE7099801683D
:1019900001200329079007D0FFE709980068001F7E
:1019A000414248410790FFE70798C007002802D14D
:1019B000FFE7FFE7FEE7FFE7FFE7099881680120FF
:1019C0000029069007D0FFE709988068401E414231
:1019D00048410690FFE70698C007002802D1FFE7BC
:1019E000FFE7FEE7FFE7FFE70998C168012000294C
:1019F000059015D0FFE70998C168012008290590D6
:101A00000ED0FFE70998C16801201029059007D082
:101A1000FFE70998C0681838414248410590FFE740
:101A20000598C007002802D1FFE7FFE7FEE7FFE7C0
:101A300009980068042826D1FFE7FFE70998416864
:101A400001200029049015D0FFE709984168012082
:101A5000012904900ED0FFE709984168012002296E
:101A6000049007D0FFE709984068C01E41424841F2
:101A70000490FFE70498C007002802D1FFE7FFE7C2
:101A8000FEE7FFE733E0FFE70998416801200029FE
:101A9000039023D0FFE709984168012001290390B2
:101AA0001CD0FFE70998416801200229039015D056
:101AB000FFE7099841680120032903900ED0FFE752
:101AC0000998416801200429039007D0FFE709988D
:101AD0004068401F414248410390FFE70398C00718
:101AE000002802D1FFE7FFE7FEE7FFE7FFE701205D
:101AF000000200F07BFC0998006804280CD1FFE785
:101B00002D480290042100F047FB0298099949688A
:101B1000890100F027FB11E02748002100F03CFB81
:101B20000998006800F0F8FC09984068800000F00F
:101B30000BFD0120000400F08DFCFFE7099881688F
:101B40001D48019000F06CFB01980999C96800F0EC
:101B500016FB08A800780AB080BDC046005C0140B2
:101B600080B586B0059004A901200870FFE70598AC
:101B70001149884202D0FFE7FFE7FEE7FFE70F4881
:101B8000039002F037FB03983721019102F05EFBCE
:101B90000199039802F0F2FA03983821029102F0B9
:101BA00055FB0299039802F0E9FA039802F0BAFA99
:101BB00004A8007806B080BD005C01400028004009
:101BC00081B000900099886801229043886001B03C
:101BD000704781B000900099886801229043886026
:101BE00001B0704781B0009000998868012290434D
:101BF000886001B0704781B0009000994869202248
:101C00009043486101B0704781B0009000998869A5
:101C1000012212049043886101B0704781B00090A6
:101C200000998869012212029043886101B07047CF
:101C300082B0019000910098C2430120C007024386
:101C40000199086A1040086202B0704781B00090A4
:101C500000998869012292029043886101B070471F
:101C600081B000900099886801221043886001B01B
:101C7000704781B000900099886801221043886005
:101C800001B0704781B000900099086901221043AB
:101C9000086101B0704781B0009000998869012205
:101CA00012041043886101B0704781B00090009920
:101CB0008869012212021043886101B0704781B027
:101CC00000900099886802221043886001B0704734
:101CD00082B001900091009A0120C00782430199CF
:101CE000086A1043086202B0704782B00190009108
:101CF000009A0120C00782430199086A10430862D4
:101D000002B0704781B00090009988690122920268
:101D10001043886101B0704780B58EB00D900C9172
:101D20000BA90120087000200A90FFE70D98F749E1
:101D3000884202D0FFE7FFE7FEE7FFE7FFE70C98E6
:101D4000016801200029089008D0FFE70C9800687E
:101D5000EF494018414248410890FFE70898C00702
:101D6000002802D1FFE7FFE7FEE7FFE7FFE70C9857
:101D7000416801200029079008D0FFE70C984068CF
:101D8000E4494018414248410790FFE70798C007DF
:101D9000002802D1FFE7FFE7FEE7FFE7FFE70C9827
:101DA000C16801200029069007D0FFE70C98C068A1
:101DB000001F414248410690FFE70698C0070028EF
:101DC00002D1FFE7FFE7FEE7FFE7FFE70C980169B5
:101DD00001200029059015D0FFE70C98016901202A
:101DE000012905900ED0FFE70C9801690120022916
:101DF000059007D0FFE70C980069C01E414248419A
:101E00000590FFE70598C007002802D1FFE7FFE72C
:101E1000FEE7FFE7FFE70C982021415C0120002945
:101E2000049008D0FFE70C982021405C401E4142FE
:101E300048410490FFE70498C007002802D1FFE75B
:101E4000FFE7FEE7FFE7FFE70C98416A0120002962
:101E500003903BD0FFE70C98416A01204204914275
:101E6000039033D0FFE70C98416A0120820491422D
:101E700003902BD0FFE70C98416A01200322520403
:101E80009142039022D0FFE70C98416A0120C204DE
:101E9000914203901AD0FFE70C98416A0120052275
:101EA00052049142039011D0FFE70C98416A01203F
:101EB000032292049142039008D0FFE70C98406AF5
:101EC00095494018414248410390FFE70398C007F5
:101ED000002802D1FFE7FFE7FEE7FFE7FFE70C98E6
:101EE000816A01200029029044D0FFE70C98816AA2
:101EF00001200205914202903CD0FFE70C98816AD4
:101F0000012042059142029034D0FFE70C98816A8B
:101F1000012003221205914202902BD0FFE70C987A
:101F2000816A012082059142029023D0FFE70C983C
:101F3000816A012005221205914202901AD0FFE722
:101F40000C98816A0120032252059142029011D01F
:101F5000FFE70C98816A0120072212059142029046
:101F600008D0FFE70C98806A6C494018414248410C
:101F70000290FFE70298C007002802D1FFE7FFE7C1
:101F8000FEE7FFE70120000300F010FA644802F0CA
:101F9000B7FE002808D1FFE76148019002F086FEF5
:101FA000019802F093FEFFE75D4802F098FEFFE71C
:101FB0005B4802F09DFE00280AD1FFE70A98800ADC
:101FC0007D2801D3FFE703E00A98401C0A90EFE761
:101FD0000D98FFF707FE0D98FFF716FE0D98FFF717
:101FE00048FE4A48FFF74EFE00200A90FFE74748A8
:101FF00000F098F809900A98401C0A90FFE70A99A7
:102000000020491C0029009005D0FFE709984142B3
:1020100048410090FFE70098C0070028E7D1FFE79C
:10202000099801286AD1FFE73848FFF785FC0D9829
:10203000FFF7D8FD0D9800F086F8002859D1FFE78A
:102040000D980C99096800F0B4F80D980C9949683E
:1020500000F000F90C98007A002804D0FFE70D98F2
:10206000FFF750FE03E00D98FFF7F0FDFFE70C9837
:10207000407A002804D0FFE70D98FFF716FE03E032
:102080000D98FFF7CBFDFFE70D980C99C96800F09C
:10209000D4F80D98FFF7AFFD0D980C99096900F081
:1020A000F4F80D980C99496900F0FCF80D980C991A
:1020B000896900F08CF80D980C99C96900F0D8F87E
:1020C0000C982021405C00280ED0FFE70D980C9959
:1020D000496A00F089F80D980C99896A00F092F825
:1020E0000D98FFF7D8FD03E00D98FFF78DFDFFE792
:1020F00003E00BA900200870FFE703E00BA9002014
:102100000870FFE70BA800780EB080BD005C0140AE
:1021100000FEFFFF00F8FFFF0000F2FF000080FF5D
:1021200000A4014081B00090009800681021084090
:10213000000901B0704781B000900098006801214B
:10214000084001B0704781B000900098806801217C
:10215000084001B0704781B000900098806A80B25A
:1021600001B0704782B00190009101984069C02190
:102170008843009908430199486102B0704782B0D2
:102180000190009101984069182188430099084303
:102190000199486102B0704782B0019000910198A6
:1021A000406904218843009908430199486102B0BD
:1021B000704782B001900091019880690121490225
:1021C0008843009908430199886102B0704782B042
:1021D000019000910198C069F0218843009908435B
:1021E0000199C86102B0704782B0019000910198D6
:1021F000806907214904884300990843019988614F
:1022000002B0704782B001900091019880690F215F
:1022100009058843009908430199886102B0704715
:1022200082B0019000910198406903218843009990
:1022300008430199486102B0704782B00190009153
:1022400001988069042188430099084301998861B5
:1022500002B0704782B0019000910198806901211D
:10226000C9028843009908430199886102B0704708
:1022700082B0019000910198C0690F2188430099B4
:1022800008430199C86102B0704782B00190009183
:102290000198C06803218843009908430199C860E8
:1022A00002B0704782B00190009101988069F021DE
:1022B0008843009908430199886102B0704781B052
:1022C00000900099086801229043086001B07047AF
:1022D00081B000900099086801221043086001B0A5
:1022E000704781B00090009908680122104308608F
:1022F00001B0704781B00090009908680222104335
:10230000086001B0704781B000900099086802220F
:102310001043086001B0704782B0019000910198AD
:10232000406807218843009908430199486002B03A
:102330007047000081B00090009A2B4908689043D4
:10234000086001B07047C04681B00090009A5649BD
:1023500008689043086001B07047C04681B00090A3
:10236000009A464908689043086001B07047C0462B
:1023700081B00090009A1C4908681043086001B0C1
:102380007047C04681B00090009A17490868104312
:10239000086001B07047C04681B00090009A1249B1
:1023A00008681043086001B07047C04681B00090D3
:1023B000009A0D4908681043086001B07047C04694
:1023C00081B00090009A084908681043086001B085
:1023D0007047C04681B00090009A034908681043D6
:1023E000086001B07047C0463424004081B00090BE
:1023F000009A034908681043086001B07047C0465E
:102400003824004081B00090009A274908681043A2
:10241000086001B07047C04681B00090009A224920
:1024200008681043086001B07047C04681B0009052
:10243000009A124908681043086001B07047C0460E
:1024400081B00090009A0D4908681043086001B0FF
:102450007047C04681B00090009A08490868104350
:10246000086001B07047C04681B00090009A0349EF
:1024700008681043086001B07047C0464C24004013
:10248000704908680122D206104308607047C046B0
:1024900081B000900448006800990840401A414209
:1024A000484101B07047C0463C24004008490868D4
:1024B000012210430860704781B000900449086809
:1024C0000F2212049043009A1043086001B0704735
:1024D0000424004081B0009004490868FF22904322
:1024E000009A1043086001B07047C04608240040BD
:1024F00008490868012210430860704781B00090C5
:1025000004490868032212049043009A10430860AB
:1025100001B070472424004081B000901049086841
:1025200003229043009A1043086001B07047C046F0
:1025300081B000900A4908681C229043009A104319
:10254000086001B07047C04681B000900449086837
:102550001C229043009A1043086001B07047C046A7
:102560004824004081B000903649086807221202D2
:102570009043009A1043086001B0704781B000900A
:1025800030490868072212049043009A10430860FB
:1025900001B0704781B000901C4908680122920781
:1025A0009043009A1043086001B0704781B00090DA
:1025B00016490868032212029043009A10430860EB
:1025C00001B0704781B000901049086803221206DC
:1025D0009043009A1043086001B0704781B00090AA
:1025E0000A490868032292069043009A1043086043
:1025F00001B0704781B00090044908680322920539
:102600009043009A1043086001B070474424004092
:1026100081B0009004490868FF229043009A10435B
:10262000086001B07047C0461C24004081B0009093
:102630000449086807229043009A1043086001B0DB
:102640007047C046002400402B480068C003C00FFC
:102650007047C0462849086804221043086008688B
:10266000012210430860704780B582B00190FFE7F7
:102670000198411E0191002805D0FFE77D20C00090
:1026800000F00EF8F4E702B080BD80B582B0019092
:1026900001997D20C000484300F030F802B080BDB1
:1026A00080B582B00190E0480068E049FDF734FE53
:1026B000014601984843019001982249884204D379
:1026C000FFE701200006009002E001980090FFE77C
:1026D000009801900198401E1B4908601B4900208A
:1026E0000860FFE704480068C003C00F002801D15C
:1026F000FFE7F7E702B080BD10E000E080B582B0F0
:102700000190C9480068C949FDF706FE01460198D5
:102710004843019001980B49884204D3FFE7012008
:102720000006009002E001980090FFE700980190F9
:102730000198401E0449086004490020086002B066
:1027400080BDC0460100000114E000E018E000E098
:1027500080B584B00390FFE7039801680120002949
:10276000029009D0FFE70398006803218907401809
:10277000414248410290FFE70298C007002802D179
:10278000FFE7FFE7FEE7FFE78020FFF705FE0120F8
:102790000190C007FFF754FE03980068FFF7FAFEA8
:1027A000019804B080BD000080B58AB009900891FE
:1027B000002005909C4800689C49FDF7ADFD01464E
:1027C000C82048430490FFE709990120012903909C
:1027D00077D0FFE7099901200229039071D0FFE724
:1027E00009990120042903906BD0FFE70999012082
:1027F0000829039065D0FFE709990120102903906B
:102800005FD0FFE7099901202029039059D0FFE705
:10281000099901204029039053D0FFE7099901202D
:10282000802903904DD0FFE70999012002029142CF
:10283000039046D0FFE7099901204202914203909C
:102840003FD0FFE70999012082029142039038D0DE
:10285000FFE709990120C2029142039031D0FFE7BE
:10286000099901200203914203902AD0FFE70999B8
:10287000012042039142039023D0FFE709990120F0
:102880008203914203901CD0FFE709990120C20303
:102890009142039015D0FFE709990120020491426B
:1028A00003900ED0FFE70999012042049142039062
:1028B00007D0FFE709985E4940184142484103901C
:1028C000FFE70398C007002802D1FFE7FFE7FEE714
:1028D000FFE7FFE70898016801200029029015D062
:1028E000FFE7089801680120012902900ED0FFE758
:1028F0000898016801200229029007D0FFE7089894
:102900000068C01E414248410290FFE70298C0079C
:10291000002802D1FFE7FFE7FEE7FFE7FFE708989F
:1029200041680120002901900ED0FFE70898416816
:1029300001200129019007D0FFE708984068801E18
:10294000414248410190FFE70198C007002802D1A9
:10295000FFE7FFE7FEE7FFE7FFE708988168012050
:102960000129009006D0FFE708988068414248415D
:102970000090FFE70098C007002802D1FFE7FFE7BB
:10298000FEE7FFE70998069007A900200870FFE717
:102990000698012809D0FFE7FFE70698400806904F
:1029A0000798401C07A90870F2E707A80078820082
:1029B00020498A58089909680007C00E81401E48BE
:1029C000904708988068012805D1FFE709991A48BF
:1029D00000F0B0F804E00999174800F053F8FFE759
:1029E000079881083C2001401448435809990898E9
:1029F00042681148984700200590FFE70598049920
:102A0000884206D2FFE700BFFFE70598401C05900B
:102A1000F4E70999084800F02BF81E2003F07EFE29
:102A200001200AB080BDC0460000002040420F00D7
:102A30000000FCFFB0970000C00D0040FC970000B4
:102A400082B00190009101980068032188430099A9
:102A500008430199086002B07047000082B00190FD
:102A600000910098394908400199486102B07047C7
:102A700082B0019000910098344908400199486162
:102A800002B0704782B0019000910098C2430448A0
:102A90000243019908691040086102B07047C046BE
:102AA0000000F8FF82B0019000910098C2432048D6
:102AB00002430199886A1040886202B07047C0469C
:102AC00082B0019000910098C243194802430199D5
:102AD00008681040086002B07047C04682B001909C
:102AE00000910098C243124802430199886810403F
:102AF000886002B07047C04682B001900091009893
:102B0000C2430B480243019948681040486002B034
:102B10007047C04682B0019000910098C2430448BB
:102B200002430199086A1040086202B07047C0462B
:102B30000000FFFF82B001900091009AD848024047
:102B4000019908691043086102B07047FFFF070050
:102B500082B001900091684602880199886A10430A
:102B6000886202B0704782B0019000916846028886
:102B7000019908681043086002B0704782B0019064
:102B8000009168460288019988681043886002B005
:102B9000704782B0019000916846028801994868A8
:102BA0001043486002B0704782B0019000916846BF
:102BB00002880199086A1043086202B0704782B027
:102BC000019000910198C069694609880840401A3F
:102BD0004142484102B0704782B001900091019893
:102BE000C069694609880840401A4142484102B01C
:102BF0007047000080B58AB00990089100200790C6
:102C00000690FFE709990120994A914205901CD04E
:102C1000FFE709990120974A9142059015D0FFE7F7
:102C200009990120944A914205900ED0FFE7099935
:102C30000120924A9142059007D0FFE709989049F8
:102C40004018414248410590FFE70598C007002819
:102C500002D1FFE7FFE7FEE7FFE7FFE7089801681B
:102C600000200029049006D0FFE7089840884142E0
:102C700048410490FFE70498C007002802D1FFE70D
:102C8000FFE7FEE7FFE7FFE7089841680120032917
:102C9000039015D0FFE708984168012000290390B0
:102CA0000ED0FFE70898416801200129039007D062
:102CB000FFE708984068801E414248410390FFE7C3
:102CC0000398C007002802D1FFE7FFE7FEE7FFE710
:102CD000FFE70898816801200129029006D0FFE7EC
:102CE00008988068414248410290FFE70298C00777
:102CF000002802D1FFE7FFE7FEE7FFE7FFE70898BC
:102D0000C16801200029019007D0FFE70898C0683A
:102D1000401E414248410190FFE70198C00700284A
:102D200002D1FFE7FFE7FEE7FFE7FFE70898416909
:102D300001200029009007D0FFE708984069401E55
:102D4000414248410090FFE70098C007002802D1A7
:102D5000FFE7FFE7FEE7FFE78020FFF73BFBFFE72A
:102D6000089800680799C84000287ED0FFE70898B7
:102D70000068079A012191400840069006980028B3
:102D80006FD0FFE70898406803281CD1FFE7099837
:102D90000699FFF795FE09980699FFF7ADFE099889
:102DA0000699FFF79BFE08984069012805D1FFE7C7
:102DB00009980699FFF7CCFE04E009980699FFF7F9
:102DC00071FEFFE731E009980699FFF76BFE08985E
:102DD0004068002805D1FFE709980699FFF7C3FE70
:102DE00004E009980699FFF76BFEFFE708988068F2
:102DF000002805D1FFE709980699FFF76FFE04E068
:102E000009980699FFF7BAFEFFE70898C0680028FE
:102E100005D0FFE709980699FFF7BBFE04E0099883
:102E20000699FFF769FEFFE7FFE708984068022868
:102E300010D1FFE708980069012805D1FFE709983C
:102E40000699FFF7B1FE04E009980699FFF762FEC4
:102E5000FFE7FFE709980699089A526800F0CAF957
:102E6000FFE70798401C07907AE701200AB080BD71
:102E7000000C0040400C0040800C0040C00C0040A2
:102E800000F3FFBF82B00190009101984069009962
:102E9000034A11400840401A4142484102B070477D
:102EA000FFFF070082B001900091684602880199F7
:102EB00088691043886102B0704782B00190009128
:102EC00068460288019988691043886102B070479A
:102ED00082B0019000916846028801998869104388
:102EE000886102B0704782B0019000916846028804
:102EF000019988691043886102B0704782B00190DF
:102F0000009168460288019988691043886102B07F
:102F1000704782B0019000916846028801998869E3
:102F20001043886102B0704782B0019000916846FA
:102F30000288019988691043886102B0704782B0A5
:102F40000190009168460288019988691043886160
:102F500002B0704782B0019000910198006803218F
:102F60008843009908430199086002B0704782B015
:102F700001900091019800680C2188430099084352
:102F80000199086002B0704782B0019000910198E9
:102F900000680321090588430099084301990860E6
:102FA00002B0704782B0019000910198006803213F
:102FB00089058843009908430199086002B0704769
:102FC00082B00190009101980068032109068843AE
:102FD000009908430199086002B0704782B00190DF
:102FE00000910198006803218906884300990843ED
:102FF0000199086002B0704782B001900091019879
:103000000068032109078843009908430199086073
:1030100002B0704782B001900091019800680321CE
:1030200089078843009908430199086002B07047F6
:1030300082B0019000910198406803218843009973
:1030400008430199486002B0704782B00190009136
:10305000019840680C218843009908430199486011
:1030600002B0704782B00190009101984068302111
:103070008843009908430199486002B0704782B0C4
:10308000019000910198006830218843009908431D
:103090000199086002B0704782B0019000910198D8
:1030A0000068C0218843009908430199086002B074
:1030B000704782B0019000910198006803210902D5
:1030C0008843009908430199086002B0704782B0B4
:1030D00001900091019800680321890288430099BA
:1030E00008430199086002B0704782B001900091D6
:1030F0000198006803210903884300990843019956
:10310000086002B0704782B0019000910198006899
:10311000032189038843009908430199086002B09C
:10312000704782B001900091019800680321090462
:103130008843009908430199086002B0704782B043
:103140000190009101980068032189048843009947
:1031500008430199086002B0704782B00190009165
:1031600068460288019948691043486102B0704777
:1031700082B0019000916846028801994869104325
:10318000486102B0704782B00190009168460288A1
:10319000019948691043486102B0704782B00190BC
:1031A000009168460288019948691043486102B05D
:1031B000704782B001900091684602880199486981
:1031C0001043486102B0704782B001900091684698
:1031D0000288019948691043486102B0704782B083
:1031E000019000916846028801994869104348613E
:1031F00002B0704783B00290019100920298C068BB
:10320000019A524303215143884300995143084393
:103210000299C86003B0704783B002900191009298
:1032200002988068019A52430321514388430099D0
:10323000514308430299886003B0704783B00290FD
:10324000019100920298C06801990A0C524303212F
:10325000514388430099514308430299C86003B021
:10326000704782B001900091009801990969084265
:1032700004D0FFE700980199886103E00098019964
:103280004861FFE702B0704782B00190009100985A
:1032900001990969084204D0FFE700980199886103
:1032A00003E0009801994861FFE702B0704782B0DF
:1032B00001900091009801990969084204D0FFE744
:1032C00000980199886103E0009801994861FFE73F
:1032D00002B0704780B5FFF7BDF980BD81B00090A6
:1032E00000994020486101B0704781B0009000997A
:1032F0004020486101B0704781B000900099886912
:1033000001229043886101B0704781B0009000991C
:10331000886901221043886101B0704781B0009034
:103320000099886901221043886101B0704781B01B
:10333000009000990868012212061043086001B04D
:10334000704781B0009000990869402210430861DD
:1033500001B0704780B58AB009900891FFE70998DD
:10336000B649884202D0FFE7FFE7FEE7FFE7FFE745
:10337000089801680120032212029142079016D09A
:10338000FFE70898016801204202914207900ED0A1
:10339000FFE708980168012002029142079006D0D9
:1033A000FFE708980068414248410790FFE7079807
:1033B000C007002802D1FFE7FFE7FEE7FFE7FFE7CE
:1033C0000898416801200029069008D0FFE7089876
:1033D00040689B494018414248410690FFE70698E3
:1033E000C007002802D1FFE7FFE7FEE7FFE7FFE79E
:1033F000089881680120002905903BD0FFE70898D4
:103400008168012082029142059033D0FFE708983D
:1034100081680120C202914205902BD0FFE70898F5
:1034200081680120032292029142059022D0FFE799
:103430000898816801200203914205901AD0FFE7A5
:10344000089881680120052292029142059011D0CE
:10345000FFE70898816801200322D202914205907B
:1034600008D0FFE7089880687649401841424841F3
:103470000590FFE70598C007002802D1FFE7FFE7A6
:10348000FEE7FFE7FFE708980169012000290490A3
:1034900015D0FFE7089801690120012904900ED09A
:1034A000FFE70898016901200229049007D0FFE78F
:1034B00008980069C01E414248410490FFE7049803
:1034C000C007002802D1FFE7FFE7FEE7FFE7FFE7BD
:1034D0000898416901200029039007D0FFE7089868
:1034E0004069001F414248410390FFE70398C0072D
:1034F000002802D1FFE7FFE7FEE7FFE7FFE70898B4
:10350000C1690120002902900ED0FFE70898C16927
:1035100001202029029007D0FFE70898C0694038B1
:10352000414248410290FFE70298C007002802D1BB
:10353000FFE7FFE7FEE7FFE7FFE708988169012063
:103540000029019007D0FFE7089880698038414240
:1035500048410190FFE70198C007002802D1FFE72A
:10356000FFE7FEE7FFE709983449884211D1FFE7FA
:103570000120FEF725FF08980069022808D0FFE720
:103580000120FEF771FF08980068FFF70FF8FFE7CA
:10359000FFE709980899496800F068F809980899C0
:1035A000896800F0A5F809980899096900F093F86E
:1035B000089800690090032832D80098810001A083
:1035C00040588746D5350000F73500000336000027
:1035D000153600000898406801218903884209D106
:1035E000FFE709980899896900F04EF80998FFF7F4
:1035F0009EFEFFE714E009980899C96900F051F8A8
:103600000EE009980899896900F03EF80998FFF7DB
:103610008EFE05E009980899C96900F042F8FFE7B5
:1036200009980899496900F049F809980899C96802
:1036300000F06CF801200AB080BDC04600340140A3
:1036400000C0FFFF00E4FFFF81B0009000984069D8
:1036500040210840800901B0704781B00090009877
:10366000006940210840800901B0704782B0019094
:10367000009101980068012189038843009908435B
:103680000199086002B0704782B0019000910198E2
:10369000006880218843009908430199086002B0BE
:1036A000704782B0019000910198006860218843C2
:1036B000009908430199086002B0704782B00190F8
:1036C00000910198006804218843009908430199FA
:1036D000086002B0704782B00190009101980068C4
:1036E00003218843009908430199086002B070479C
:1036F00082B00190009101980068072189028843F7
:10370000009908430199086002B0704782B00190A7
:1037100000910198C06800980199C86002B0704794
:1037200081B00090009901204004886001B070478A
:1037300081B00090009901204004886001B070477A
:1037400081B00090009901204004886001B070476A
:1037500081B00090009901200002886001B070479C
:1037600081B00090009901200002886001B070478C
:1037700081B00090009901200002886001B070477C
:1037800081B00090009901200002886001B070476C
:1037900081B00090009901200004886001B070475A
:1037A00081B00090009901200004886001B070474A
:1037B00081B00090009901200004886001B070473A
:1037C00081B00090009901200006886001B0704728
:1037D00080B58CB00B900AA901200870FFE70B9907
:1037E00001203B4A914209900ED0FFE70B9901203E
:1037F000384A9142099007D0FFE70B9836494018A4
:10380000414248410990FFE70998C007002802D1CA
:10381000FFE7FFE7FEE7FFE7304800F0E3FC0B9827
:103820002B49884214D1FFE72C48069008210791C4
:1038300000F0F2FC0698079900F086FC0120089041
:103840000004FEF725FE08980007FEF787FD37E025
:103850000B982049884214D1FFE7204803900921A2
:10386000049100F0D9FC0398049900F06DFC01204C
:1038700005904004FEF70CFE05984007FEF76EFD2C
:103880001DE00B981649884214D1FFE713480090B9
:103890000A21019100F0C0FC0098019900F054FC4D
:1038A000012002908004FEF7F3FD02984005FEF728
:1038B00055FD03E00AA900200870FFE7FFE7FFE7D6
:1038C000064800F027FC0AA800780CB080BDC0466E
:1038D000004001400044014000B0FEBF002800400D
:1038E0000050014081B000900099C8680122D207C1
:1038F0009043C86001B0704781B00090009908689B
:1039000002229043086001B0704781B00090009996
:10391000086801229043086001B0704781B00090B0
:103920000099C8680122D2071043C86001B07047EF
:1039300081B000900099486801221202104348604B
:1039400001B0704781B000900099086802221043CE
:10395000086001B0704781B00090009908680222A9
:103960001043086001B0704781B00090009908686A
:1039700002221043086001B0704781B000900099A6
:10398000086801221043086001B0704781B00090C0
:103990000099086801221043086001B0704781B0A7
:1039A00000900099086801221043086001B0704738
:1039B00080B590B00F900E910DA900200870FFE720
:1039C0000F990120D64A91420B900ED0FFE70F9934
:1039D0000120D44A91420B9007D0FFE70F98D249BB
:1039E0004018414248410B90FFE70B98C007002860
:1039F00002D1FFE7FFE7FEE7FFE7FFE70E98016868
:103A0000012000290A900ED0FFE70E9801680120DE
:103A100001290A9007D0FFE70E980068801E4142F6
:103A200048410A90FFE70A98C007002802D1FFE743
:103A3000FFE7FEE7FFE7FFE70E9841680120052951
:103A4000099022D0FFE70E984168012004290990CF
:103A50001BD0FFE70E98416801200329099014D07C
:103A6000FFE70E9841680120022909900DD0FFE779
:103A70000E98416801200129099006D0FFE70E98B1
:103A80004068414248410990FFE70998C007002873
:103A900002D1FFE7FFE7FEE7FFE7FFE70E98816847
:103AA0000120C029089015D0FFE70E9881680120F9
:103AB000002908900ED0FFE70E9881680120402968
:103AC000089007D0FFE70E9880688038414248414F
:103AD0000890FFE70898C007002802D1FFE7FFE73A
:103AE000FEE7FFE7FFE70E98C16801200029079075
:103AF00009D0FFE70E98C068FF21C9434018414232
:103B000048410790FFE70798C007002802D1FFE768
:103B1000FFE7FEE7FFE7FFE70E98016901200029B4
:103B200006900ED0FFE70E9801690120102906903B
:103B300007D0FFE70E9800692038414248410690BF
:103B4000FFE70698C007002802D1FFE7FFE7FEE77E
:103B5000FFE7FFE70E98416901200029059015D085
:103B6000FFE70E9841690120022905900ED0FFE77A
:103B70000E98416901200129059007D0FFE70E98B2
:103B80004069C01E414248410590FFE70598C007C3
:103B9000002802D1FFE7FFE7FEE7FFE70F98604943
:103BA00088420FD1FFE7012004900004FEF72AFCB1
:103BB00004980007FEF73AFC0E9800680006FEF72E
:103BC00001FD23E00F98574988420FD1FFE70120FC
:103BD00003904004FEF716FC03984007FEF726FC0E
:103BE0000E9800688006FEF7F9FC0EE001200290B6
:103BF0008004FEF707FC02984005FEF717FC0E98BC
:103C000000688005FEF7F6FCFFE7FFE70E98006806
:103C100002280AD1FFE703200004FEF76FFCFEF73D
:103C200067FC0F98FFF75EFE03E00F98FFF776FE44
:103C3000FFE70E98007DC00700280CD0FFE7FFE7E4
:103C40000F98FFF7ACFEFFE70F9800F0A1F80128EE
:103C5000F6D1FFE7FFE70E98007D800700280CD51E
:103C6000FFE7FFE70F98FFF77FFEFFE70F9800F0F1
:103C700086F80128F6D1FFE7FFE70F980E9949680B
:103C800000F098F80F980E99C96800F0BAF80F98EC
:103C90000E99896800F09BF80F980E99096900F059
:103CA000A3F80E9840680190052829D80198810052
:103CB00001A040588746C046D13C0000D93C0000D6
:103CC000E13C0000E93C0000F13C0000F93C000050
:103CD0000CA91B48088017E00CA91848088013E0BD
:103CE0000CA9154808800FE00CA9124808800BE0C9
:103CF0000CA90F48088007E00CA90C48088003E0D5
:103D00000CA90F480880FFE70F980CA9098800F05C
:103D100087F80DA801210170007810B080BDC04661
:103D2000004001400044014000B0FEBF42080000D6
:103D3000D616000092040000DB160000FB1E0000F7
:103D40005205000081B000900098806801210902AE
:103D50000840000A01B0704781B000900098806868
:103D600002210840400801B0704781B000900098DF
:103D70004068012109020840000A01B0704781B083
:103D800000900098006802210840400801B0704788
:103D900081B00090009800680121084001B0704790
:103DA00081B00090009800690149084001B0704757
:103DB000FF01000082B0019000910198C0680721C6
:103DC0008843009908430199C86002B0704782B0E7
:103DD0000190009101980068C02188430099084330
:103DE0000199086002B0704782B00190009101987B
:103DF000006830218843009908430199086002B0A7
:103E0000704782B001900091019800680121090279
:103E10008843009908430199086002B07047000088
:103E200082B0019000910198C0680449084000994F
:103E3000090408430199C86002B07047FFFF00E021
:103E400082B00190009101984069044908400099AE
:103E500008430199486102B07047C04600FEFFFF69
:103E600080B584B0039002A801700398006804280C
:103E700004D3FFE7039903200860FFE702A801903D
:103E8000007840B202F060FC0198007840B20399DB
:103E9000096802F085FC0198007840B202F06AFCE3
:103EA00004B080BD81B00090009908680122120220
:103EB0009043086001B0704781B000900099086895
:103EC000012212021043086001B0704782B00190D5
:103ED00000910198006803218904884300990843F0
:103EE0000199086002B0704782B00190009101987A
:103EF000006803218843009908430199086002B0D3
:103F0000704782B0019000910198006803218902F6
:103F10008843009908430199086002B0704782B055
:103F2000019000910198006801214902884300999D
:103F300008430199086002B0704782B00190009177
:103F4000019840680321884300990843019948601B
:103F500002B0704780B588B00790069105A900208F
:103F60000870FFE707985E49884202D0FFE7FFE745
:103F7000FEE7FFE7FFE7069801790120002904909A
:103F800007D0FFE706980079401E4142484104905F
:103F9000FFE70498C007002802D1FFE7FFE7FEE72C
:103FA000FFE7FFE70698016901200029039008D088
:103FB000FFE7069800694B49401841424841039089
:103FC000FFE70398C007002802D1FFE7FFE7FEE7FD
:103FD000FFE7FFE7069881680120420291420290C4
:103FE00006D0FFE706988068414248410290FFE70B
:103FF0000298C007002802D1FFE7FFE7FEE7FFE7CE
:10400000FFE70698C16801200029019010D0FFE762
:104010000698C168012082029142019008D0FFE712
:104020000698C06830494018414248410190FFE776
:104030000198C007002802D1FFE7FFE7FEE7FFE78E
:10404000FFE70698416901200029009015D0FFE79D
:10405000069841690120012900900ED0FFE70698DB
:10406000416901200229009007D0FFE706984069C6
:10407000C01E414248410090FFE70098C007002859
:1040800002D1FFE7FFE7FEE7FFE7079806994969D6
:10409000FFF753FF07980699C968FFF732FF0698A4
:1040A0000079012804D1FFE70798FFF705FF03E037
:1040B0000798FFF7F7FEFFE7079806990969FFF7EA
:1040C00005FF0A4900200860079806998968FFF7EC
:1040D00026FF05A801210170007808B080BDC04608
:1040E000002000400000F8FF00F8FFFF10ED00E0A6
:1040F00081B000900099486801221043486001B0E7
:10410000704781B000900099486801229043486050
:1041100001B0704781B0009000990A48486101B031
:104120007047C04681B0009000990648486101B0D0
:104130007047C04681B0009000990248486101B0C4
:104140007047C0462064A8EC82B0019000910098AE
:104150001F2808D8FFE70098012282400199C8690A
:104160009043C86108E000982038012282400199FC
:10417000086A90430862FFE702B0704782B001907E
:10418000009100981F2808D8FFE70098012282407C
:104190000199C8699043C86108E00098203801225D
:1041A00082400199086A90430862FFE702B07047B5
:1041B00082B00190009100981F2808D8FFE700986E
:1041C000012282400199C8699043C86108E00098C3
:1041D0002038012282400199086A90430862FFE773
:1041E00002B0704781B0009000990A48486101B060
:1041F0007047C04681B0009000990648486101B000
:104200007047C04681B0009000990248486101B0F3
:104210007047C046DF9B571382B001900091009811
:104220001F2808D8FFE70098012282400199C86939
:104230001043C86108E000982038012282400199AB
:10424000086A10430862FFE702B0704782B001902D
:10425000009100981F2808D8FFE7009801228240AB
:104260000199C8691043C86108E00098203801220C
:1042700082400199086A10430862FFE702B0704764
:1042800082B00190009100981F2808D8FFE700989D
:10429000012282400199C8691043C86108E0009872
:1042A0002038012282400199086A10430862FFE722
:1042B00002B0704781B000900099086801229043D5
:1042C000086001B0704781B0009000990868012231
:1042D0001043086001B0704781B00090009902203F
:1042E000886001B0704781B000900099022088601A
:1042F00001B0704781B0009000990820886001B03B
:10430000704781B0009000990820886001B0704724
:1043100080B582B001900091019800F0DDF801981D
:104320000099896900F009F901980099496900F03C
:10433000EAF801980099096900F0D8F80198009905
:10434000896800F0B1F801980099C96800F002F995
:1043500001980099496800F0E3F80198009909680C
:1043600000F005F9019800F0ADF8012002B080BD21
:1043700082B00190694601200870FFE7019830493A
:10438000884202D0FFE7FFE7FEE7FFE70199002040
:104390004860019A54491160019908630199486382
:1043A00001998862019988610199486101990861C0
:1043B000019908620199C8600199C8610199486230
:1043C0000199C8630199C86201990864019908605C
:1043D0006846007802B0704781B000900099086C80
:1043E00001229043086401B0704781B000900099A9
:1043F000486808229043486001B0704781B000903F
:104400000099486802221043486001B070470000DC
:1044100080B582B001900091FFE701980849884279
:1044200002D0FFE7FFE7FEE7FFE70420FDF7AAFF62
:1044300001980099FFF76CFF012002B080BDC046D3
:104440000010014081B0009000988068022108406F
:10445000400801B0704781B0009000988068082142
:104460000840C00801B0704781B0009000984068D3
:1044700002210840400801B0704781B000900098C8
:10448000406808210840C00801B0704782B0019020
:1044900000910198006B4349084000990843019935
:1044A000086302B07047C04682B001900091019845
:1044B00080693F218843009908430199886102B0CF
:1044C0007047000081B0009000990248086001B078
:1044D0007047C0465A5A5A5A81B000900099024813
:1044E000086001B07047C046ACACACAC82B0019083
:1044F0000091019840693F21884300990843019940
:10450000486102B0704782B0019000910198006943
:104510007F218843009908430199086102B07047E0
:1045200082B0019000910198006A1F218843009990
:1045300008430199086202B0704782B0019000916F
:104540000198C0687F218843009908430199C86099
:1045500002B0704782B0019000910198C0690721B4
:104560008843009908430199C86102B0704782B03E
:10457000019000910198406AFF2188430099084307
:104580000199486202B0704782B001900091019891
:10459000006B04490840009908430199086302B080
:1045A0007047C04600FEFFFF80B58AB00890FFE765
:1045B00008990120F44A914207900ED0FFE708992C
:1045C0000120F24A9142079007D0FFE70898F0498E
:1045D0004018414248410790FFE70798C00700286C
:1045E00002D1FFE7FFE7FEE7FFE72848FFF70AFEF3
:1045F0000898E54988420ED1FFE7244805900D212F
:104600000691FFF73DFE05980699FFF7D1FD0120C1
:10461000FDF79AFE2EE00898DC4988420ED1FFE7AC
:104620001A4803900E210491FFF72AFE039804997B
:10463000FFF7BEFD0220FDF787FE1AE00898D64975
:1046400088420ED1FFE7114801900F210291FFF738
:1046500017FE01980299FFF7ABFD0420FDF774FEE9
:1046600006E00A48FFF766FD09A90020087008E087
:10467000FFE7FFE70548FFF75DFD09A90120087086
:10468000FFE709A800780AB080BDC04600280040B6
:1046900081B000900099486801229043486001B0C1
:1046A000704781B0009000994868022290434860AA
:1046B00001B0704781B00090009948680122104312
:1046C000486001B0704781B00090009948680122AD
:1046D0001043486001B0704781B00090009948686D
:1046E00001221043486001B0704781B000900099EA
:1046F000486802221043486001B0704780B58AB014
:1047000008900791FFE7089901209F4A914206907F
:104710000ED0FFE7089901209C4A9142069007D0ED
:10472000FFE708989A494018414248410690FFE740
:104730000698C007002802D1FFE7FFE7FEE7FFE782
:10474000FFE70798416801200029059009D0FFE79D
:1047500007984068FF21C9434018414248410590ED
:10476000FFE70598C007002802D1FFE7FFE7FEE753
:10477000FFE7FFE70798C16901200029049007D0EF
:10478000FFE70798C069001F414248410490FFE7D6
:104790000498C007002802D1FFE7FFE7FEE7FFE724
:1047A000FFE70798816801200029039018D0FFE7F0
:1047B00007988168012042029142039010D0FFE7E0
:1047C00007988168012082029142039008D0FFE798
:1047D000079880686F494018414248410390FFE7BD
:1047E0000398C007002802D1FFE7FFE7FEE7FFE7D5
:1047F000FFE70798816901200029029031D0FFE787
:10480000079881690120082902902AD0FFE70798BC
:10481000816901201029029023D0FFE70798816960
:104820000120182902901CD0FFE707988169012018
:104830002029029015D0FFE70798816901202829D7
:1048400002900ED0FFE7079881690120302902907D
:1048500007D0FFE707988069383841424841029005
:10486000FFE70298C007002802D1FFE7FFE7FEE755
:10487000FFE7FFE70798016901200029019007D0B1
:10488000FFE707980069401E414248410190FFE759
:104890000198C007002802D1FFE7FFE7FEE7FFE726
:1048A000FFE70798C16801200029009007D0FFE7C3
:1048B0000798C068801E414248410090FFE7009879
:1048C000C007002802D1FFE7FFE7FEE7FFE70898EF
:1048D0002D49884204D1FFE70120FDF79DFD17E037
:1048E00008982A49884204D1FFE70220FDF794FD89
:1048F0000DE008982849884204D1FFE70420FDF71D
:104900008BFD03E009A90020087038E0FFE7FFE70E
:1049100007984069012804D1FFE70898FFF7E5FEF2
:1049200003E00898FFF7BDFEFFE70898079949687C
:1049300000F09BF808980799896900F053F80898E7
:104940000799C96900F041F808980799896800F04B
:1049500070F808980799096900F051F808980799C4
:10496000096800F074F808980799C96800F054F8CD
:104970000898FFF7B1FE09A901200870FFE709A810
:1049800000780AB080BDC046000401400008014024
:1049900000B8FEBF00FAFFFF0048014081B0009060
:1049A000009800690121084001B0704781B0009073
:1049B0000098006902210840400801B0704781B0AA
:1049C00000900098806901B0704782B0019000911A
:1049D0000198006804218843009908430199086000
:1049E00002B0704782B001900091019800683821B0
:1049F0008843009908430199086002B0704782B06B
:104A000001900091019800680121884300990843B2
:104A10000199086002B0704782B00190009101983E
:104A2000006802218843009908430199086002B098
:104A3000704782B0019000910198406803214902BB
:104A40008843009908430199486002B0704782B0DA
:104A50000190009101984068012109028843009962
:104A600008430199486002B0704782B001900091FC
:104A700001980068012109028843009908430199BF
:104A8000086002B0704782B00190009101984069BF
:104A900000980199486102B07047000081B0009011
:104AA0000099024A0520885001B0704704080000B0
:104AB00080B586B005900491FFE705986A49884261
:104AC00002D0FFE7FFE7FEE7FFE7FFE70498016892
:104AD00001200029039031D0FFE7049801680120EC
:104AE000102903902AD0FFE70498016801202029AB
:104AF000039023D0FFE70498016801203029039038
:104B00001CD0FFE70498016801204029039015D0CC
:104B1000FFE7049801680120502903900ED0FFE7B9
:104B20000498016801206029039007D0FFE70498EA
:104B300000687038414248410390FFE70398C0077E
:104B4000002802D1FFE7FFE7FEE7FFE7FFE7049851
:104B5000416801200029029069D0FFE7049841686C
:104B600001200129029062D0FFE7049841680120EA
:104B7000022902905BD0FFE70498416801200329D5
:104B8000029054D0FFE70498416801200429029064
:104B90004DD0FFE70498416801200529029046D0D6
:104BA000FFE7049841680120062902903FD0FFE703
:104BB0000498416801200729029038D0FFE7049843
:104BC000416801200829029031D0FFE7049841682C
:104BD0000120092902902AD0FFE7049841680120AA
:104BE0000A29029023D0FFE70498416801200B298D
:104BF00002901CD0FFE70498416801200C29029024
:104C000015D0FFE70498416801200D2902900ED0CD
:104C1000FFE70498416801200E29029007D0FFE7C2
:104C2000049840680F38414248410290FFE70298DB
:104C3000C007002802D1FFE7FFE7FEE7FFE70B48C8
:104C40000190FDF760FB0198FDF74BFB0598049977
:104C5000496800F01BF805980499096800F008F805
:104C6000012006B080BDC04600F0014000E00140D8
:104C700082B00190009101980B4A805870218843BE
:104C8000009908430199885002B0704782B00190A2
:104C900000910198044A80580F21884300990843E5
:104CA0000199885002B070470808000081B0009058
:104CB00000990120886001B0704781B00090009990
:104CC000086801229043086001B0704781B00090ED
:104CD0000099086801221043086001B0704781B054
:104CE00000900099086802221043086001B07047E4
:104CF00081B00090009880680121084001B07047A1
:104D000081B00090009800680121084001B0704710
:104D100082B0019068460180009A0199088890430A
:104D2000088002B0704782B00A46014601A801809F
:104D300069460A80008809880840411E884102B0FF
:104D4000704782B0019068460180009A01990888F6
:104D50001043088002B0704780B584B00290019182
:104D600069460A80019A0C48801A0988491E8842BF
:104D700004D2FFE703A90120087009E00298019915
:104D80006A46128801F030FE03A900200870FFE790
:104D900003A8007804B080BDFFFF7F0080B584B019
:104DA000039003980003039001F014FE01F070FEDD
:104DB00002F032FB8F480290202101F0B3FE0298EE
:104DC00003A90191897801F0ADFE01990298497813
:104DD00001F0A8FE01990298097801F0A3FE02F003
:104DE00013FB01F055FE04B080BDC04680B588B00D
:104DF0000790069105A802800699090B049106996F
:104E00004B4A114003AA1180039A012109038A1A0F
:104E100002A90A8000880988884204DCFFE7059817
:104E200002A90880FFE7FFE7049801034148012237
:104E30001203FFF791FF01A900200880FFE701A8F6
:104E4000008802A90988884211DAFFE703A80088D0
:104E500001A9098841183748405CFF2801D0FFE7C5
:104E600005E0FFE70198401C01A90880E7E701A8D9
:104E7000008802A90988884225DAFFE70498FFF72D
:104E80008DFF01A900200880FFE701A8008802A982
:104E9000098888420FDAFFE7079801A90988405C72
:104EA00003AA12888A1823498854FFE70198401CF6
:104EB00001A90880E9E7049801031E4801221203B2
:104EC00000F03CF806E00798069902AA128800F064
:104ED00035F8FFE705A8008802A90988884201D1B2
:104EE000FFE723E00498401C049003A900200880F9
:104EF00002A8028807998918079101880698401826
:104F0000069002990598411A05A8018000880A496F
:104F1000884205DBFFE70120000302A9088003E0C7
:104F2000059802A90880FFE7FFE77DE708B080BD8C
:104F3000FF0F0000580100200110000080B586B06E
:104F40000590049103A8028004A90A7801210902AE
:104F50008A1A02A90A8000880988884204DCFFE7CF
:104F6000039802A90880FFE7FFE70598049902AAC1
:104F70000192128801F096FD019903A80088098822
:104F8000884201D1FFE71EE002A80288059989182E
:104F90000591018804984018049002990398411AD9
:104FA00003A801800088FF210231884205DBFFE76A
:104FB0000120000202A9088003E0039802A90880EA
:104FC000FFE7FFE7D1E706B080BD000080B502F043
:104FD00023FA0848B92101F0A5FD02F015FA80BDB9
:104FE00080B502F019FA0348AB2101F09BFD02F0F5
:104FF0000BFA80BD0004014080B586B076480221DE
:10500000FDF740FF012817D1FFE773480221FDF7A4
:1050100025FD72481021FDF7D2FD01280BD1FFE7D5
:105020006F480321FFF78DFE6E49002008806E480F
:10503000FEF774F9FFE7FFE767480421FDF722FF59
:10504000012812D1FFE764480421FDF707FD012084
:1050500001026248FDF7B3FD012805D1FFE7604872
:105060000421FFF76EFEFFE7FFE75B480821FDF72D
:1050700009FF012800D091E057480821FDF7EEFC18
:105080000120C1035548FDF79AFD002822D1FFE712
:10509000534803908021FFF754FE03982021FFF727
:1050A00050FE5148FEF73AF90398504A002111701A
:1050B000008801218902FFF736FE002809D0FFE7AA
:1050C0004B480121FEF780F801F03CF901F06CF942
:1050D000FFE762E00120C1034048FDF770FD0128B1
:1050E0005AD1FFE73E488021FFF712FE3F48007883
:1050F000322817DCFFE73A48008801218902FFF7D0
:1051000012FE002805D0FFE735480121FFF719FE00
:10511000FFE737480121FDF7FCFE31482021FFF76A
:10512000F7FD35E031480078332830DBFFE72C48C5
:10513000008801218902FFF7F6FD00280BD1FFE767
:105140002748029001218902FFF7FBFD02984021C8
:10515000FFF7F7FD16E02248008801218902FFF7DA
:10516000E2FD00280DD0FFE71D48019001210091CC
:105170008902FFF7CDFD00990198C902FFF7E1FD13
:10518000FFE7FFE71A480121FDF7C3FEFFE7FFE74E
:10519000164900200870FFE7FFE7FFE70E482021CF
:1051A000FDF770FE012814D1FFE70B482021FDF721
:1051B00055FC10484021FDF702FD002808D1FFE70B
:1051C00007480121FFF7BDFD0748FEF7A7F8FFE7F5
:1051D000FFE706B080BDC046C00D0040000C004097
:1051E0005601002088130020003401407E13002067
:1051F000800C0040400C004080B582B001900199C5
:10520000024802F00FFA02B080BDC04600480140DB
:1052100080B584B0039003980088FBF766FD0246D2
:105220000B46002001900B49FBF71AFB0A4A0B4B77
:10523000FBF7E6FA019A0A4BFBF762FDFBF726F94A
:1052400002900298FBF75AFF00F016FD054988709E
:1052500004B080BDC0FEB3407B14AE47E17A943FFA
:10526000000024408013002010B5B6B0FC48007840
:10527000C007002809D1FFE7F9490120087002F0B2
:1052800067F9C820FDF7F0F9FFE7F6480088042128
:10529000FFF749FD002800D192E0F2482390042155
:1052A000FFF736FDF048FFF7A7FFF048F049425AF4
:1052B00006215143401800F089FA23980088012103
:1052C0008903FFF730FD002867D1FFE7E749E84A87
:1052D000885A401C8852885AE64B18408852E24847
:1052E0001990008800B202F0DBFA01461998E24AF0
:1052F0001A9211600221405E02F0D2FA014619981A
:10530000DE4A1B9211600421405E02F0C9FA014698
:105310001A98DB4A1E9211600068FBF715FE012205
:105320009307209300221F9203F0C4FA02461B98B1
:105330001C921D910068FBF707FE1F9A209B03F04B
:10534000B9FA02461C980B461D99FBF759FA02461A
:105350001E98219222910068FBF7F6FD1F9A209B70
:1053600003F0A8FA024621980B462299FBF748FA67
:1053700003F08AFFFBF78AF824902498FD4903F094
:105380008DFA002804D1FFE7FB490120087003E0F3
:10539000F94900200870FFE711E0F8480178491C3E
:1053A00001700078012809D1FFE7F4490020087056
:1053B000EC4801218903FFF7ABFCFFE7FFE7FFE7BC
:1053C000ED480078012800D0BAE1F3480121FDF74B
:1053D000DAFEE549F148085AE44A895A884200D180
:1053E000ADE1E1481890ED491791425A0621159117
:1053F0005143405EFBF7CCFE01463591E14C2068FD
:1054000003F0FEFF1599179A034618982360825AF5
:10541000514340180221405EFBF7BAFE0146349129
:10542000D94C206803F0ECFF1599179A0346189899
:105430002360825A514340180421405EFBF7A8FEC6
:1054400001463391D1481690006803F0D9FF1699B0
:10545000179B189A0860CA480188491C0180D15AD4
:10546000491CD152D15AC24C2140D1520088402807
:1054700073D1FFE7C348149000688521C9051291D4
:10548000FBF78CFD1299149A1060BF4811900068C8
:10549000FBF784FD119A12991060BC4813900068C4
:1054A000FBF77CFD139A149910603598096804F095
:1054B0006FF8FBF749FD0122D307994393070022B8
:1054C00003F0D6F900280AD1FFE7AE480068A649E4
:1054D0000322D2028850B24901200870FFE73498B5
:1054E000A949096804F054F8FBF72EFD0122D307FF
:1054F00099439307002203F0BBF9002809D1FFE785
:10550000A14800689849A74A8850A7490120087017
:10551000FFE733989D49096804F03AF8FBF714FD5A
:105520000122D30799439307002203F0A1F9002831
:1055300009D1FFE7954800688B499C4A88509C49EF
:1055400001200870FFE78F49002008608E4908603D
:105550008E4908608A490880FFE783480A908F498E
:105560000491425A062105915143405E02F088F9A8
:105570000A990322D202895804F00AF8049A05997C
:1055800003460A988B4C06940351825A51434018A3
:105590000221405E02F074F90A99824A895803F0A8
:1055A000F7FF049A059903460A98834C0794035120
:1055B000825A514340180421405E02F061F90A9971
:1055C0007A4A895803F0E4FF069902460A987B4B11
:1055D0000B93C2504058FBF7B7FC012293070D9381
:1055E00000220C9203F066F902460A9808920A46D5
:1055F000079909924058FBF7A7FC0C9A0D9B03F002
:1056000059F9024608980B460999FBF7F9F8024642
:105610000A980E920A460B990F924058FBF794FC99
:105620000C9A0D9B03F046F902460E980B460F9913
:10563000FBF7E6F803F028FEFAF728FF014632915F
:1056400054481090006803F0DBFE10990860504841
:105650000188491C0180008840283BD112E0C046E7
:105660005A11002056010020D82B00208C13002056
:1056700048180000FF03000074110020781100207A
:105680007C1100204348039000688521C905FBF781
:1056900085FC039908603298096803F079FFFBF7ED
:1056A00053FC0122D20791430022454B03F0E0F85E
:1056B000002809D1FFE737480068DD49414A885092
:1056C000414901200870FFE7324900200860304955
:1056D0000880FFE73C480078C00700282ED0FFE78D
:1056E00033480078C007002828D0FFE72E4800780C
:1056F000C007002822D0FFE729480078C00700280B
:105700001CD0FFE73049002002900870284908703B
:105710002549087022490870CB4801210191FDF705
:10572000CCFB0199BF484903FFF7F2FA02980C49F4
:1057300008701149087001F079FEFFE7FFE70DE0FE
:105740000F49002008800F4908600F4908600F4981
:1057500008600F4908800F490860FFE736B010BDA8
:105760005A110020560100208C1300204818000018
:10577000FF030000008089445811002050010020E0
:105780005E110020681100206C11002070110020B3
:105790006011002064110020800C00404A180000B5
:1057A0005B110020041800005C11002008180000A4
:1057B0005D1100200C1800001018000014180000E3
:1057C0000000E03F181800005911002080B582B099
:1057D000019001999A4802F019F802B080BDC046C4
:1057E00010B5DCB01DA8FA21FAF75CFD8D480088E1
:1057F0000221FFF798FA002800D110E18A480078CA
:1058000000280AD1FFE7F848012115918903FFF725
:1058100098FA159884490870FFE7F3480088042136
:10582000FFF781FA002800D17FE0EF4814900421AF
:105830000E91FFF76DFA7D48FFF7DEFC7C480D9076
:105840007C490B91425A06210C9151434018FFF7B5
:10585000BDFF0B9A0C990D98825A5143405EFBF79D
:1058600044FA012213929307109300220F9203F03F
:1058700021F80B9A03460D9809930B460C990A934D
:10588000825A514340180221405EFBF72EFA0F9ACC
:10589000109B03F00FF8024609980B460A99FAF795
:1058A000AFFF0B9B0C9A04460D9811940C460E9971
:1058B0001294C35A5A438018405EFBF716FA0F9AA7
:1058C000109B02F0F7FF024611980B461299FAF767
:1058D00097FF03F0D9FCFAF7D9FD13990246149803
:1058E000189200888903FFF71EFA00280AD1FFE703
:1058F0004F49504A885A401C8852885A4E4B18408B
:10590000885211E04D480178491C01700078012847
:1059100009D1FFE7494900200870B34801218903F4
:10592000FFF7F6F9FFE7FFE7FFE7454816A90891FB
:1059300001F0ECFE08980078C006C00F00281CD0CB
:10594000FFE740490020087037490870A6480690D4
:105950000221FFF7DDF90698012107910903FFF7FE
:10596000F0F907993848FDF7A8FA31483749405807
:10597000FBF7C4FB36494860FFE72D493548085A14
:105980002C4A895A884249D0FFE72F4801210591C6
:10599000FDF77AFC1898FBF7B1FB01F071FF244981
:1059A00004912D4A895803F0F3FD024604982B49CF
:1059B0004250284BC25A521CC252C25A1E4C22405C
:1059C000C2524058264903F08BFD19901998FBF7F5
:1059D000BBFA059AD2079143224A234B02F053FFA8
:1059E00000281AD1FFE71248039018490291405845
:1059F0000090199903F004FD1C4903F071FD014664
:105A0000009801911A4903F06BFD0146019803F0DB
:105A1000F7FC029A03998850FFE7FFE7FFE75CB0C5
:105A200010BDC0465601002081110020D82B002057
:105A30008C13002048180000FF03000050010020D4
:105A40000048014080110020800C00402C1800000C
:105A5000801300204A1800000818000014180000E5
:105A6000D9899D3BFA7E6ABC7493683F5EBA793FE0
:105A700039B4C83C80B584B0039002A9C1208870B5
:105A8000154808807D20C30001931448032200F0CC
:105A9000AFF80198FCF7F9FDFFE7FCF7D5FD00280A
:105AA00008D1FFE7E04800880821FFF73CF900280B
:105AB00001D0FFE700E0F0E7DB4800880821FFF7AE
:105AC00032F9002805D0FFE7D8480079039908701B
:105AD000FFE704B080BDC046C1C1000000500140D6
